:03020000020208EF
:0302610002020393
:05020300121F2480FE23
:03000000020200F9
:0100030032CA
:01000B0032C2
:0100130032BA
:01001B0032B2
:0100230032AA
:01002B0032A2
:01003300329A
:01003B003292
:01004300328A
:01004B003282
:01005300327A
:01005B003272
:01006300326A
:0101000032CC
:0101040032C8
:0101080032C4
:01010C0032C0
:0101100032BC
:0101140032B8
:0101180032B4
:0101200032AC
:0101240032A8
:0101280032A4
:01012C0032A0
:01013000329C
:010134003298
:010138003294
:01013C003290
:01014000328C
:010148003284
:01014C003280
:01015000327C
:010154003278
:010158003274
:01015C003270
:01016000326C
:01017000325C
:010174003258
:010178003254
:01017C003250
:01018000324C
:010184003248
:010188003244
:01018C003240
:01019000323C
:010194003238
:010198003234
:01019C003230
:0101A000322C
:0101A8003224
:0101AC003220
:0101B000321C
:0101B4003218
:0101B8003214
:010264002277
:08026500AA82AB837C007D003E
:0B026D00C3EC9AED9B50147EB07F04A0
:050278001EBEFF011F86
:0B027D00EE4F70F70CBC00E80D80E5B0
:010288002253
:08028900AA82AB837C007D001A
:0B029100C3EC9AED9B50147E0A7F0026
:05029C001EBEFF011F62
:0B02A100EE4F70F70CBC00E80D80E58C
:0102AC00222F
:0E02AD0075AF0790E67BE090E67CF0DAF32276
:0102BB002220
:0202BC007A00C6
:0302BE00BAFF0084
:0D02C100500B90E678E0FB20E0030A80F08F
:0C02CE0090E678E0FA20E204EA20E10B60
:0B02DA0090E678E04440F075820122BD
:0402E50075820022FC
:0202E9007A0099
:0302EB00BAFF0057
:0D02EE00500B90E678E0FB20E0030A80F062
:0E02FB0090E678E0FA30E20B90E678E04440BE
:05030900F075820122E5
:04030E0075820022D2
:020312007A006F
:03031400BAFF002D
:0E031700500F90E678E0FB20E2047582002291
:030325000A80EC5F
:0403280075820122B7
:02032C007A0055
:03032E00BAFF0013
:0E033100500F90E678E0FB20E6047582002273
:03033F000A80EC45
:04034200758201229D
:09034600AA82C3E49508E433FB2C
:0E034F0090E678E04480F0C002C00312031272
:0E035D00D003D00290E679EAF0C002C003128D
:0C036B0002BCE582D003D0027012E5094C
:0C037700600A90E678E04440F012032C8D
:04038300758200225D
:0E038700EB601090000AC002C003120289D081
:0503950003D00280B559
:0C039A00E509600890E678E0FA4440F0C5
:0403A6007582012239
:0C03AA00AA82AB837C00E50C7003F58296
:0103B6002224
:0A03B7007508647509007582A2C084
:0E03C10002C003C004120346E582D004D0033C
:0703CF00D00260030204B03C
:0C03D60090E679E50BF0C002C003C00403
:0E03E2001202BCE582D004D003D002600302F8
:0203F00004B057
:0C03F20090E679E50AF0C002C003C004E8
:0E03FE001202BCE582D004D003D002600302DC
:02040C0004B03A
:0E040E0090E678E04440F0C002C003C0041243
:0D041C00032C90E678E04480F0120312906B
:0E042900E67974A3F01202BCE582D004D00381
:0E043700D002707590E679E08A828B83F0C067
:0E04450002C003C0041202E9E582D004D00315
:05045300D0027059FD0C
:0C045800C3ED950C502A90E679E08A82F2
:0E0464008B83F0A3AA82AB83C002C003C00446
:0E047200C0051202E9E582D005D004D003D007
:0804800002702D0D8D0480D0E7
:0E04880090E678E04420F090E679E0C004129F
:0E04960002E9E582D004701290E678E044405E
:0C04A400F090E679E0C00412032CD004B4
:0304B0008C822219
:0C04B300AA82AB837C00E50F7003F58289
:0104BF00221A
:0A04C0007508647509007582A2C07A
:0E04CA0002C003C004120346E582D004D00332
:0704D800D002600302057071
:0C04DF0090E679E50EF0C002C003C004F6
:0E04EB001202BCE582D004D003D002600302EE
:0204F90005708C
:0C04FB0090E679E50DF0C002C003C004DB
:0E0507001202BCE582D004D003D002705CFD6D
:0C051500C3ED950F50478A828B83E0FEF7
:0E052100A3AA82AB8390E679EEF0903A04E054
:0D052F00FFEE2FF0903A02E0FEA3E0FF90F7
:0E053C003A0274012EF0E43FA3F0C002C003A7
:0E054A00C004C0051202BCE582D005D004D06A
:0A05580003D00270130D8D0480B370
:0E05620090E678E04440F0C00412032CD00470
:030570008C822258
:0A057300903A38E0FA903A00E0F503
:06057D000AA3E0F50B8A61
:0C0583000C90E740C0021203AAAB82D02B
:0E058F00027C00903A00E0FDA3E0FE903A00EE
:0A059D00EA2DF0EC3EA3F08B822261
:0B05A700AA82903A00E0F50DA3E0F5F9
:0905B2000E8A0F90E740C002120E
:0E05BB0004B3D0027B00903A00E0FCA3E0FD08
:0B05C900903A00EA2CF0EB3DA3F0227A
:0C05D400AA82AB837C00E5117003F58265
:0105E00022F8
:0A05E1007508647509007582A6C054
:0E05EB0002C003C004120346E582D004D00310
:0705F900D00260030206BE00
:0C06000090E679E510F0C002C003C004D1
:0E060C001202BCE582D004D003D002600302CB
:02061A0006BE1A
:0E061C0090E678E04440F0C002C003C0041233
:0D062A00032C90E678E04480F0120312905B
:0E063700E67974A7F01202BCE582D004D0036D
:0E064500D002707590E679E08A828B83F0C057
:0E06530002C003C0041202E9E582D004D00305
:05066100D0027059FDFC
:0C066600C3ED9511502A90E679E08A82DD
:0E0672008B83F0A3AA82AB83C002C003C00436
:0E068000C0051202E9E582D005D004D003D0F7
:08068E0002702D0D8D0480D0D7
:0E06960090E678E04420F090E679E0C004128F
:0E06A40002E9E582D004701290E678E044404E
:0C06B200F090E679E0C00412032CD004A4
:0306BE008C822209
:0C06C100AA82AB837C00E5137003F58275
:0106CD00220A
:0A06CE007508647509007582A6C066
:0E06D80002C003C004120346E582D004D00322
:0706E600D00260030207B01F
:0C06ED0090E679E512F0C002C003C004E2
:0E06F9001202BCE582D004D003D002600302DE
:0207070007B039
:04070900AD127E00AF
:09070D00C3EE951340030207A29C
:0E0716008A828B83E0FFA3AA82AB8390E679F0
:0D072400EFF0C002C003C004C005C0061203
:0E07310002BCE582D006D005D004D003D00271
:0C073F00706F0D8D120E8E04ED20E3C2D1
:0C074B00C3EE951350BC90E678E04440EB
:0E075700F0C002C003C004C005C00612032C8F
:0A0765007508647509007582A6127C
:0E076F000346E582D006D005D004D003D002A8
:0E077D00703190E679EDF0C002C003C004C0F8
:0E078B0005C0061202BCE582D006D005D004DF
:09079900D003D002701102070D1B
:0E07A20090E678E04440F0C00412032CD0042E
:0907B000903A05E512F08C82225A
:0A07B900903A38E0FA903A05E0F5B6
:0907C300108A1190E740C00212F7
:0E07CC0005D4AB82D002903A05E0FCEA2CF096
:0307DA008B8222ED
:0207DD00AA82EE
:0A07DF00D2A6000000C2A6DAF7223D
:0E07E900A2A4D2A633C2A6A2A4D2A633C2A650
:0E07F700A2A4D2A633C2A6A2A4D2A633C2A642
:0E080500A2A4D2A633C2A6A2A4D2A633C2A633
:0E081300A2A4D2A633C2A6A2A4D2A633C2A625
:07082100F58222758200221E
:02082800AA160E
:0E082A00A2A4D2A633C2A6A2A4D2A633C2A60E
:0E083800A2A4D2A633C2A6A2A4D2A633C2A600
:0E084600A2A4D2A633C2A6A2A4D2A633C2A6F2
:0E085400A2A4D2A633C2A6A2A4D2A633C2A6E4
:05086200F0A3DAC4223E
:0E086700E5823392A7D2A633C2A692A7D2A6EC
:0E08750033C2A692A7D2A633C2A692A7D2A6DD
:0E08830033C2A692A7D2A633C2A692A7D2A6CF
:0E08910033C2A692A7D2A633C2A692A7D2A6C1
:04089F0000C2A622CB
:0208A300AA1693
:0E08A500E03392A7D2A633C2A692A7D2A63302
:0E08B300C2A692A7D2A633C2A692A7D2A6339F
:0E08C100C2A692A7D2A633C2A692A7D2A63391
:0E08CF00C2A692A7D2A633C2A692A7D2A6A313
:0508DD00C2A6DAC422EE
:0B08E200D2A57582081207DDC2A52216
:0808ED00D2A57582080207DDA7
:0D08F500903A137405F01208E275820512A6
:0609020008677A007B008B
:0E090800C002C0031207E9E582D003D002301E
:0E091600E02E8A048B057E007F00C3EC94FF68
:0E092400ED94FFEE9400EF6480948050157502
:0E0932008200C002C0031207DDD003D0020A0B
:06094000BA00C50B80C2E5
:0C0946001207E9E58230E0047A0280022A
:020952007A0029
:09095400903A0EEAF01208ED9051
:06095D003A0EE0F58222D3
:0E096300AA82AB8320A50A903A0E7404F075A8
:03097100820422DB
:0E097400C002C0031208F5E582D003D0026075
:0809820007903A0EE0F5822215
:0E098A00903A08E0FCA3E07D00EC24F8FCEDC0
:0909980034FFFD8CF005F080062F
:0609A100EA2AFAEB33FB29
:0E09A700D5F0F7903A13740BF0C002C00312A3
:0E09B50008E275820B120867D0038B82C00324
:0E09C300120867D003D0028A8212086775827C
:0E09D100001208677582081207DD7582002289
:0409DF0075820022FB
:0309E3000208ED1A
:0909E6001208ED903A1BE4F01236
:0D09EF0008F5E5826007903A0EE0F58222DF
:0D09FC00903A137406F01208E2758206129C
:060A090008671208ED90E1
:0C0A0F003A137402F01208E27582021221
:0B0A1B000867903A18E0A3E0F5821293
:0C0A26000867903A18E0FAA3E08A8212F8
:0C0A3200086775820012086775820022B8
:0E0A3E00AA82903A1BE0FB6012C0021209E689
:0D0A4C00E582D0026007903A0EE0F58222AC
:0A0A59008A82120867903A1AE090B2
:0C0A63003A1A04F0903A1AE0FA701C9065
:0E0A6F003A18E0FAA3E0FB903A1874012AF05E
:0D0A7D00E43BA3F01208ED903A1B7401F069
:040A8A00758200224F
:0E0A8E00AA82AB83903A1BE0FC6016C002C047
:0D0A9C00031209E6E582D003D00260079046
:060AA9003A0EE0F5822286
:090AAF00903A1AE0FC700C851469
:0A0AB800168A828B831208A3806760
:0B0AC200ECF4FC0CE5146006C3EC959E
:030ACD0014504F73
:0C0AD0008C168A828B83C002C003C00415
:0C0ADC001208A3D004D003D002E514C31C
:0C0AE8009CF514903A18E0FDA3E0FE908D
:0E0AF4003A1874012DF0E43EA3F0903A1AE493
:0E0B0200F0EC2AFAE43BFBC002C0031209E645
:0E0B1000E582D003D0026007903A0EE0F58235
:010B1E0022B4
:080B1F008514168A828B8312F3
:020B270008A321
:0A0B2900903A1AE0FAE5142AF09061
:0E0B33003A1AE0FA701C903A18E0FAA3E0FBC0
:0E0B4100903A1874012AF0E43BA3F01208ED7C
:060B4F00903A1B7401F056
:040B55007582002283
:0E0B5900AA82AB8320A50A903A0E7404F075B0
:030B6700820422E3
:0E0B6A00C002C0031208F5E582D003D002607D
:080B780007903A0EE0F582221D
:0E0B8000903A1CEAF0A3EBF0903A08E0FCA3D8
:0E0B8E00E07D00EC24F8FCED34FFFD8CF0055A
:030B9C00F08006E0
:060B9F00EA2AFAEB33FB29
:0E0BA500D5F0F7903A18EAF0A3EBF0903A1A68
:0D0BB300E4F0903A137406F0C002C0031283
:090BC00008E275820612086712B2
:070BC90008ED903A12E090E4
:070BD0003A13F01208E29055
:0E0BD7003A12E0F582120867D0038B82C00349
:0E0BE500120867D003D0028A82120867758258
:080BF300001208671208ED90E2
:090BFB003A1B7401F0758200221E
:070C04001208ED75820022C9
:030C0B000208EDEF
:0E0C0E001208ED903A1CE0FAA3E0FB8A828BFC
:050C1C0083A3020B5947
:0E0C210090E671E4F0903A077401F0903A0EFC
:0D0C2F00E4F0903A087410F0A37480F09087
:0E0C3C003A1274D8F053B4EF43B4E0D2A57569
:0C0C4A0082001207DD903A137490F01243
:0C0C560008E2758290120867758218127F
:080C620007DD1207E9E58290AD
:070C6A003A10F01208ED90B2
:0C0C71003A13749FF01208E275829F1283
:060C7D00086775160390E4
:060C83003A1412082812C9
:0A0C890008ED903A16E0FABA1000E8
:0E0C9300403DEA24E74038903A14E0903A0FD2
:0E0CA100F0903A15E0903A11F0EA24F0FA8A49
:090CAF00F005F07A017B008006DB
:060CB800EA2AFAEB33FB0F
:0E0CBE00D5F0F7903A0AEAF0A3EBF0EB33958D
:060CCC00E0A3F0A3F022FA
:0E0CD200903A07E4F0903A0E7407F053B41F06
:010CE00022F1
:0A0CE100903A38E0F51690E7401253
:0B0CEB000828903A1EE0FABA020E90B2
:0D0CF6003A36E0FAA3E0FB4A70030208ED75
:010D030022CD
:0A0D0400903A38E0F51490E7401231
:0B0D0E000A8E903A1FE0FABA020E9025
:0D0D19003A36E0FAA3E0FB4A70030208ED51
:010D260022AA
:0E0D270075B68075B10090000112026575B6B8
:070D350000903A27E4F022D0
:0E0D3C00E5B120E00C75B68075B100900001A5
:030D4A001202652D
:090D4D0075B600903A27E4F0228B
:0E0D560090E6017480F00000000090E671E469
:0E0D6400F090E672F0903A28E5B4F0903A274D
:0E0D7200747BF053B46F43B440D2A675B6BC88
:0E0D800075B10890000212026575B188C2A616
:040D8E007A007B006C
:0E0D9200E5B120E1208A048B057E007F00C3BE
:0E0DA000EC94FFED94FFEE9400EF64809480DD
:090DAE0050070ABA00DE0B80DBDD
:090DB700E5B130E1047AC88002C4
:020DC0007A6453
:0E0DC200903A25EAF0903A21E4F0A3F0A3F075
:080DD000A3F0903A20E4F022A8
:010DD80022F8
:090DD900E5B130E1047A16800254
:020DE2007A0B8A
:0A0DE400903A25E0FBEA2BF07A00BC
:030DEE00BA400008
:090DF1005007D2A6C2A60A80F444
:0E0DFA0043B104D2A6C2A6D2A6C2A6D2A6C2F9
:0E0E0800A6D2A6C2A675B600903A28E0F5B4B0
:080E1600E5B130E003020DD844
:010E1E0022B1
:0C0E1F0085B31575B3FF903A38E0FB90E6
:0E0E2B003A21E0FCA3E0FDA3E0FEA3E0FF7887
:0E0E39000079007A00903A21EB2CF0E83DA3FE
:0E0E4700F0E93EA3F0EA3FA3F090E68BE060F6
:0E0E550022FA759B40759AE775AF07903A2018
:050E6300E0F990E67BC0
:0E0E6800E0F590D2A629F9C2A6DAF5903A205C
:020E7600E9F0A1
:0B0E78008515B390E68BE0FABA40004D
:050E83005003020DD92F
:010E88002247
:0E0E890090E60174E2F090E6F3E4F090E6C328
:0E0E9700F090E6C1F090E6C27404F090E6C060
:0C0EA500744EF090E6F4E4F0759B397A8E
:0A0EB100397B3A8B9A759E60759D9F
:0E0EBB00E4C0027A201202ADD00290E6C6E436
:0D0EC900F090E6C77410F090E6C8E4F090D9
:0E0ED600E6C9F090E6CAF090E6CBF090E6CCCC
:0E0EE400E4F090E6CDF090E60B7401F0000013
:0D0EF200000090E6047480F0000000009005
:0E0EFF00E6047402F00000000090E604E4F047
:0E0F0D000000000090E618E4F00000000090E4
:0E0F1B00E6187410F00000000090E6D2740199
:0E0F2900F00000000090E6CE7401F000000021
:0E0F37000090E6CFE4F00000000090E6D0E469
:0E0F4500F00000000090E6D1E4F00000000093
:0E0F530090E6D474FFF00000000053B4BF75A8
:030F6100B190222A
:0E0F6400E582FA700FE5B130E00A903A26748B
:060F720001F0758201226E
:0E0F7800903A26E4F0AAB453B41F75B69875EB
:0E0F8600B100900001C00212026575B18090AA
:0B0F9400000A120265D0027B007C0006
:0E0F9F00E5B130E12520A522C3EB9410EC94BF
:0D0FAD00275019900001C002C003C00412BB
:0E0FBA000265D004D003D0020BBB00D90C801E
:010FC800D652
:0E0FC900900001C002120265D002E5B130E0D6
:0A0FD70009C002120DD8D0028013E9
:0E0FE10075B118900001C002120265D0029096
:050FEF003A267404F035
:0E0FF40075B6008AB4D2A5903A26E0F58222A6
:0B100200903A06E0FA605675101A756F
:06100D001104903A2912C3
:0E10130005D4903A2BE0FAA3E0FB4A603F9030
:0E1021003A29E0FCA3E0FDC3EC9AED9B4004ED
:04102F008C028D039F
:051033001ABAFF011BC9
:0E103800903A08E0FCA3E07D00EC24F4FCED0F
:0910460034FFFD8CF005F0800779
:07104F00C3EB13FBEA13FAE7
:09105600D5F0F68A828B83A322F7
:08105F009000001209637A0001
:03106700BA0800C4
:0D106A005016C0021207E9AB82D002EA90D6
:0B1077001F4093FCEBB504030A80E56A
:05108200BA0802801A0B
:0E1087007B00903A08E0FCA3E0FDECC39AF574
:0C10950082ED9BF5831209E3900000221D
:0D10A1001207E9AA82C0021207E9AB829093
:0E10AE003A08E0FCA3E0FDEC24F6F582ED34F8
:0E10BC00FFF583C0031209E3D003D0028B04BA
:0E10CA00E4FBFDEA4203ED42048B828C83A31B
:0110D80022F5
:0B10D900903A06E0FA602F75101A75BF
:0610E4001104903A2D12E8
:0E10EA0005D4903A2FE0FAA3E0FB4A6018907C
:0D10F8003A2DE0FAA3E0FB4A600302119CD0
:0A110500903A267403F0758203226D
:0E110F00900000120963E582600A903A26748F
:06111D0002F075820222BF
:021123007A0050
:03112500BA080005
:0D1128005016C0021207E9AB82D002EA9017
:0B1135001F4093FCEBB504030A80E5AB
:05114000BA0802802046
:0E1145007B00903A08E0FCA3E0FDECC39AF5B5
:0E11530082ED9BF5831209E3903A267403F0B7
:04116100758203226E
:0E1165001207E9AA82C0021207E9AB82D0028B
:0E117300EB4202903A08E0FBA3E0FCEB24F60E
:0E118100F582EC34FFF583C0021209E3D002C0
:0D118F00EA700A903A267403F0758203227C
:0E119C00758200120F64AA82903A26EAF0BA19
:0711AA000105120DD8800FB2
:0E11B100BA040C758200120F64E582903A2693
:0111BF00F03F
:0711C000903A26E0F58222BF
:01006C00286B
:01006D000191
:04006E005A54455843
:040072000A1100006F
:010076000089
:010077000187
:060078006700000000001B
:0C007E0000000000000000000000000076
:0A008A00303030303030303030308C
:0111C7002205
:0E11C80090E683E4F07420F07410F07430F0C0
:0E11D60090E6837401F07421F07411F074310E
:0B11E400F090E6837402F07422F02209
:0A11EF00AA82E51724E050037517EB
:0111F9001FD6
:0D11FA0090E6BFE0701090E6BEE0FBC395EC
:0912070017500690E6BEE0F51751
:0C12100075AF078A9B85169A759E417584
:0A121C009DE790E67C7403F07A0071
:0C122600C3EA9517501190E67BE0FB90A6
:0B123200E67CF090E67CE4F00A80E926
:0B123D00E5170425E0FA90E740F09070
:0E124800E7417403F090E68AE4F090E68BEA4A
:02125600F02284
:0E125800903A36E0FAA3E0FBC374409AE49BA0
:0812660050067C407D0080046D
:04126E008A048B055E
:0E127200903A38ECF07D00903A36EAC39CF0DA
:05128000EB9DA3F0222C
:0B128500903A79E0FABA310302131925
:06129000BA320302131C38
:06129600BA340302132824
:06129C00BA350302133B0A
:0512A200BA3902800DC5
:0512A700BA3C02802C9E
:0512AC00BA420280308F
:0312B10002135ACB
:0E12B400903A04E4F0903A02F0A3F090E6BB0A
:0E12C200E0FB7A0090E6BAE0FC7D00903A0076
:0812D000EC4AF0ED4BA3F02203
:0912D80090E6BAE0903A05F0221C
:0D12E10090E6BDE0FA903A1FF0EA600122AD
:0E12EE0090E6BBE0FB7A0090E6BAE07D004A95
:0E12FC00F582ED4BF583120B59E5827001224D
:0E130A0090E6A0E04401F0903A36E4F0A3F043
:0113180022B2
:03131900020D279B
:09131C00903A27E0FABA7B0122A5
:03132500020D5660
:0E132800120D5690E6A3E054FEF090E6F57428
:05133600FFF0020E892A
:0E133B0075B18843B44090E6F574FFF00000F1
:0E134900000090E601E0FA54F0F00000000011
:03135700020DD9AB
:08135A0090E6A0E04401F0223E
:0C136200C020C0E0C0F0C082C083C00208
:0E136E00C003C004C005C006C007C000C00117
:0E137C00C0D075D00090E6B9E0FA903A79F052
:0E138A0090E6B57401F090E6B9E0FA24F35055
:04139800030217181D
:07139C00EA2A2A9013A37353
:0713A3000213CA02147E02CE
:0613AA0017180214FB02FB
:0613B000171802171802D5
:0613B60015930216AE02C1
:0613BC0016B00216C1028A
:0613C20016C60216D70258
:0213C80016DC31
:0A13CA0090E6B8E0FABA8002800D48
:0513D400BA8102801E39
:0513D900BA8202802F22
:0313DE00021718DB
:0E13E10090E740E4F090E741F090E68AF0904B
:0813EF00E68B7402F0021718EE
:0E13F70090E740E4F090E741F090E68AF09035
:08140500E68B7402F0021718D7
:0C140D0090E6BCE0FA600FBA0102801902
:05141900BA800280050D
:05141E00BA812F801EC1
:0E14230090E6A0E0FA53020190E740EAF08064
:011431003A80
:0E14320090E6A1E0FA53020190E740EAF08054
:011440002B80
:0E14410090E6A2E0FA53020190E740EAF08044
:01144F001C80
:0E14500090E6BCE0C31314540324A3F582E419
:0E145E0034E6F583E0FA53020190E740EAF02D
:0E146C0090E741E4F090E68AF090E68B74027F
:04147A00F00217184D
:0A147E0090E6B8E0FABA020280031B
:0314880002171830
:09148B0090E6BAE06003021718B4
:0C14940090E6BCE0FA600FBA010280157F
:0514A000BA8002800586
:0514A500BA812380164E
:0B14AA0090E6A0E0FA54FEF0021718D4
:0B14B50090E6A1E0FA54FEF0021718C8
:0B14C00090E6A2E0FA54FEF0021718BC
:0E14CB0090E6BCE0C31314540324A3FAE434E7
:0E14D900E6FB90E6BCE0C31314540324A3F515
:0E14E70082E434E6F583E0FC5304FE8A828B37
:0614F50083ECF002171861
:0A14FB0090E6B8E0FABA020280039E
:03150500021718B2
:0915080090E6BAE0600302171836
:0C15110090E6BCE0FA600FBA0102801402
:05151D00BA8002800508
:05152200BA81208014D5
:0A15270090E6A0E0FA4401F08041D4
:0A15310090E6A1E0FA4401F08037D3
:0A153B0090E6A2E0FA4401F0802DD2
:0E15450090E6BCE0C31314540324A3FAE4346C
:0E155300E6FB90E6BCE0C31314540324A3F59A
:0E15610082E434E6F583E0FC4304FE8A828BCC
:03156F0083ECF01A
:0E15720090E6BCE05480C423541FFA90E6BCFF
:0E158000E0FB740F5B420290E683EAF07420F9
:05158E004AF0021718ED
:0A15930090E6BBE0FABA01028019ED
:05159D00BA02028026E5
:0515A200BA0302804DB8
:0615A700BA0603021667FC
:0615AD00BA0703021679E3
:0315B3000216A479
:0A15B6007A767B1F90E6B3EBF0900D
:0815C000E6B47476F00217187E
:0B15C80090E680E0FA30E7127A927B98
:0A15D3001F90E6B3EBF090E6B4744D
:0515DD0092F002171856
:0A15E2007ABA7B1F90E6B3EBF0909D
:0815EC00E6B474BAF00217180E
:0A15F40090E6BAE0FABA0102800F97
:0515FE00BA0202801C8E
:05160300BA030280297A
:05160800BA044A80361F
:06160D007582487A487B5B
:041613001F8B16759E
:0616170017051211EF029D
:02161D0017189C
:06161F0075824D7A4D7B3F
:041625001F8B16758C
:0616290017201211EF0270
:02162F0017188A
:0A16310075828A7A8A7B008B167599
:06163B00170A1211EF0274
:02164100171878
:0616430075826D7A6D7BDB
:041649001F8B167568
:06164D0017081211EF0264
:02165300171866
:0A1655007AE27B1F90E6B3EBF09001
:08165F00E6B474E2F002171872
:0A1667007A887B1F90E6B3EBF09049
:08167100E6B47488F0021718BA
:0B16790090E680E0FA30E7127ABA7BBE
:0A1684001F90E6B3EBF090E6B4749B
:05168E00BAF00217187C
:0A1693007A927B1F90E6B3EBF09013
:07169D00E6B47492F08074C2
:0A16A40090E6A0E0FA4401F0806A2D
:0216AE00806852
:0E16B00090E740E4F090E68AF090E68B74013B
:0316BE00F0805762
:0516C1001211C8805267
:0E16C60090E740E4F090E68AF090E68B740125
:0316D400F0804162
:0516D7001211C8803C67
:0E16DC0090E6B8E0FABA823490E6BCE0C313A0
:0B16EA0014540325E0247BF582E43457
:0C16F5003AF583E4F0A3F090E685E09065
:0D170100E740F090E684E0FA90E741F090B8
:0A170E00E68AE4F090E68B7402F026
:0B17180090E6B8E0FABA400302195650
:05172300BAC0028003C2
:0317280002198023
:0E172B0090E6BFE0FB7A0090E6BEE0FC7D0099
:0E173900903A36EC4AF0ED4BA3F012125890A5
:09174700E6B9E0FABA220280378B
:06175000BA30030218EF9D
:06175600BA33030219354D
:05175C00BA38028043D1
:05176100BA3A028067A6
:06176600BA3B0302180C5F
:06176C00BA3D030218253E
:06177200BA400302184614
:06177800BA410302187CD7
:06177E00BA43030218C982
:0317840002194CFB
:0E17870090E6B5E4F090E68AF090E68B7428C8
:0D179500F090E6B3E4F090E6B4746CF0025E
:0217A2001980AC
:0E17A40090E6BBE0FB7A0090E6BAE0FC7D0028
:0E17B200903A00EC4AF0ED4BA3F090E68AE48A
:0D17C000F0120573E58290E68BF0021980AF
:0E17CD00903A02E0FAA3E0FB8A0490E740ECB9
:0D17DB00F08B0290E741EAF0903A04E090B4
:0A17E800E742F0750800750901756D
:0D17F20082A2120346AA8290E743EAF0901B
:0D17FF00E68AE4F090E68B7404F002198095
:0E180C0090E6BAE0903A05F090E68AE4F01219
:0B181A0007B9E58290E68BF002198010
:0A1825007508007509017582A6120E
:0E182F000346AA8290E740EAF090E68AE4F0D1
:09183D0090E68B7401F0021980A1
:0E184600903A0EE0FA700920A506903A0E7452
:0218540004F09E
:06185600759B077A077B79
:0C185C003A8B9A759E40759DE7C0027A99
:0E186800081202ADD00290E68AE4F090E68B02
:061876007408F002198065
:0D187C0090E6BDE0FA903A1EF0EA702D9063
:0E188900E6BBE0FB7A0090E6BAE07D004AF58F
:0D18970082ED4BF583120963E5826012902B
:0E18A400E6A0E0FA4401F0903A36E4F0A3F03A
:0318B20002198098
:0E18B500120CE190E68AE4F0903A38E0FA90E6
:0618C300E68BF002198023
:0618C900759B0E7A0E7BF8
:0C18CF003A8B9A759E40759DE7C0027A26
:0E18DB000A1202ADD00290E68AE4F090E68B8D
:0618E900740AF0021980F0
:0618EF00759B207A207BAE
:0C18F5003A8B9A759E417A417BE78B9DEF
:0E190100C0027A071202ADD002E5B130E00755
:07190F0090E740E4F0800CBA
:0C19160090E7407401F075B600120D2738
:0E19220090E7487401F090E68AE4F090E68BBE
:051930007409F0804B7A
:0E19350090E7407402F090E741E4F090E68AFB
:09194300F090E68B7402F0803490
:0A194C0090E6A0E0FA4401F0802AC2
:0C19560090E6BFE0700690E6BEE0601670
:0E196200903A7A7401F090E68BE4F05391EF26
:0819700090E65D7401F080199E
:0819780012128590E68BE4F0E9
:0E1980005391EF90E65D7401F090E6A0E0FA5E
:03198E004480F0A2
:0E199100D0D0D001D000D007D006D005D004B1
:0D199F00D003D002D083D082D0F0D0E0D0B1
:0219AC002032E7
:0E19AE00C0E0C082C0835391EF90E65D7402EA
:0819BC00F0D083D082D0E032AC
:0E19C400C0E0C082C0835391EF90E65D7404D2
:0819D200F0D083D082D0E03296
:0E19DA00C0E0C082C0835391EF90E65D7408B8
:0819E800F0D083D082D0E03280
:0E19F000C0E0C082C0835391EF90E65D74109A
:0819FE00F0D083D082D0E0326A
:0E1A0600C0E0C082C0835391EF90E65D742073
:081A1400F0D083D082D0E03253
:0E1A1C00C0E0C082C0835391EF90E65D74403D
:081A2A00F0D083D082D0E0323D
:0C1A3200C020C0E0C0F0C082C083C00231
:0E1A3E00C003C004C005C006C007C000C00140
:0E1A4C00C0D075D000C2E8121258903A79E06E
:071A5A00FABA3003021AD2B0
:061A6100BA3303021AD2A1
:051A6700BA3802801EE8
:051A6C00BA3A0280619E
:051A7100BA3B028024D5
:051A7600BA3D0280579B
:051A7B00BA4002805298
:051A8000BA41028025BF
:051A8500BA4341804856
:0E1A8A0090E68AE4F0120573E58290E68BF098
:021A9800803894
:0E1A9A0090E68AE4F01207B9E58290E68BF040
:021AA800802894
:0D1AAA00903A38E0FA6008903A0EE4F0122D
:021AB7000CE140
:0E1AB90090E68AE4F0903A38E0FA90E68BF07E
:021AC700800994
:091AC90090E68AE4F090E68BF04F
:0E1AD2005391EF90E65F7401F0D2E8D0D0D0CF
:0E1AE00001D000D007D006D005D004D003D02E
:0C1AEE0002D083D082D0F0D0E0D02032B3
:0C1AFA00C020C0E0C0F0C082C083C00269
:0E1B0600C003C004C005C006C007C000C00177
:0E1B1400C0D075D000C2E8903A7AE0FA6020A6
:0D1B2200903A7AE4F090E6BFE0FB7A009084
:0E1B2F00E6BEE0FC7D00903A36EC4AF0ED4B4D
:051B3D00A3F012128567
:0C1B4200121258903A79E0FABA3103020E
:021B4E001BBAC0
:051B5000BA32028062C0
:051B5500BA34028060BB
:051B5A00BA3502805BBA
:051B5F00BA3902800A02
:051B6400BA3C028010F4
:051B6900BA424E801F8E
:0B1B6E0090E68BE0F5821205A7804195
:0B1B7900903A05E0F51290E68BE0F5D5
:091B84001390E7401206C1802D08
:0D1B8D00903A38E0FA6026903A0EE4F0122B
:0A1B9A000D04903A0EE0FA601712F5
:0E1BA40008ED90E6A0E0FA4401F0903A36E435
:051BB200F0A3F0800328
:031BB700120E1FEC
:0E1BBA0090E68BE4F05391EF90E65F7402F03A
:0E1BC800903A36E0FAA3E0FB4A700890E6A0DF
:051BD600E0FA4480F07C
:0E1BDB00D2E8D0D0D001D000D007D006D0057F
:0E1BE900D004D003D002D083D082D0F0D0E060
:031BF700D02032C9
:0E1BFA00C0E0C082C0835391EF90E65F740498
:081C0800F0D083D082D0E0325D
:0E1C1000C0E0C082C0835391EF90E65F74087D
:081C1E00F0D083D082D0E03247
:0E1C2600C0E0C082C0835391EF90E65F74105F
:081C3400F0D083D082D0E03231
:0E1C3C00C0E0C082C0835391EF90E65F742039
:081C4A00F0D083D082D0E0321B
:0E1C5200C0E0C082C0835391EF90E65F744003
:081C6000F0D083D082D0E03205
:0E1C6800C0E0C082C0835391EF90E65F7480AD
:081C7600F0D083D082D0E032EF
:071C7E0075100075110390C1
:061C85003A311205D49073
:0E1C8B003A31E0FABA4324903A32E0FABA4411
:0E1C99001C903A33E0FABA3014903A06740107
:0A1CA700F075101075110A90008A04
:051CB1001205D48005BE
:051CB600903A06E4F085
:021CBB007A00AD
:031CBD00BA0A0060
:0E1CC0005012EA248AF582E43400F583E0FB3A
:061CCE00BB30540A80E95E
:071CD4007510FB751105906E
:091CDB003A311205D47A007B00B5
:031CE400BB05003D
:0A1CE700503CEB2431F582E4343A5E
:0E1CF100F583E0FCEA248AFDE43400FEECC436
:0E1CFF00540F901FE693FF8D828E83F00AEA49
:0E1D0D00248AFDE43400FE740F5C901FE69300
:0A1D1B00FC8D828E83F00A0B80BF5E
:011D2500229B
:0E1D260090E680E04408F090E6007412F09021
:0C1D34000002120265538EF8120D3C9064
:0E1D40003A2674FFF0C2AFC2E890004374026E
:0E1D4E00F09000447401F090004574B8F090DD
:0D1D5C00E668E04408F09001007402F07A9F
:0A1D6900627B138B04900101ECF083
:0C1D7300900102EAF09001047402F07A82
:0A1D7F00AE7B198B04900105ECF017
:0C1D8900900106EAF09001087402F07A64
:0A1D9500C47B198B04900109ECF0E7
:0C1D9F0090010AEAF090010C7402F07A46
:0A1DAB00DA7B198B0490010DECF0B7
:0C1DB50090010EEAF09001107402F07A28
:0A1DC100F07B198B04900111ECF087
:0C1DCB00900112EAF09001147402F07A0A
:0A1DD700067B1A8B04900115ECF056
:0C1DE100900116EAF09001187402F07AEC
:0A1DED001C7B1A8B04900119ECF026
:0C1DF70090011AEAF09001207402F07ACA
:0A1E0300327B1A8B04900121ECF0F1
:0C1E0D00900122EAF09001247402F07AA7
:0A1E1900FA7B1A8B04900125ECF00F
:0C1E2300900126EAF09001287402F07A89
:0A1E2F00FA7B1B8B04900129ECF0F4
:0C1E390090012AEAF090012C7402F07A6B
:0A1E4500107B1C8B0490012DECF0C3
:0C1E4F0090012EEAF09001307402F07A4D
:0A1E5B00267B1C8B04900131ECF093
:0C1E6500900132EAF09001347402F07A2F
:0A1E71003C7B1C8B04900135ECF063
:0C1E7B00900136EAF09001387402F07A11
:0A1E8700527B1C8B04900139ECF033
:0C1E910090013AEAF090013C7402F07AF3
:0A1E9D00687B1C8B0490013DECF003
:0E1EA70090013EEAF05391EF90E65D747FF0FB
:0E1EB50090E65CE0FA447FF090E65F74FFF088
:0E1EC30090E65E74FFF0D2E8D2AF90E61174A4
:0E1ED100A0F00000000090E61074A0F00000E9
:0D1EDF00000090E61274A0F00000000090DA
:0E1EEC00E613E4F00000000090E614E4F000BD
:0D1EFA0000000090E615E4F000000000126A
:061F07000C21121C7E12E9
:0D1F0D0010D990E680E04482F090000A12A6
:0A1F1A00026590E680E054F7F02223
:0B1F2400121D26903A06E0FA600C90B7
:061F2F001F61751006752C
:051F350011011205D4AA
:021F3A0080FE27
:081F40005A54455842530101B7
:051F48005A5445580049
:0E1F4D005553422D46504741204D6F64756C30
:0E1F5B006520322E31332020286465666175C2
:041F69006C7429006B
:081F6D0064656661756C740087
:011F7500006B
:0E1F760012010002FFFFFF401A2200010000CE
:041F84000102030152
:0A1F88000A060002FFFFFF400100FF
:0E1F920009022700010104C032090400000307
:0E1FA000FFFFFF000705810200020007050198
:0B1FAE00020002000705020200020012
:011FB9000027
:0E1FBA0009022700010104C0320904000003DF
:0E1FC800FFFFFF000705810240000007050132
:0B1FD60002400000070502024000006E
:011FE10000FF
:041FE20004030000F4
:0E1FE6003031323334353637383941424344D6
:031FF4004546005F
:021FF7000000E8
:011FF90000E7
:0E1FFA00018801010101010702070202020233
:0E200800020020000000000000200036000052
:042016000000003F87
:0E201A00020190010101010702020702020209
:0E202800020020000000000000200000360032
:042036000000003F67
:01203A00FFA6
:01203B0000A4
:08203C0000000000000000009C
:06023700E478FFF6D8FD9B
:08021500794DE94400601B7AF9
:05021D0001901FF778BD
:030222003675929C
:0A0225003AE493F2A308B8000205C2
:08022F0092D9F4DAF27592FF96
:08023D007800E84400600A7932
:03024500007592AF
:060248003AE4F309D8FCC2
:08024E007836E84400600C79E9
:0B02560001903A00E4F0A3D8FCD9FAB4
:03020800758120DD
:0A020B00121F3CE5826003020203AB
:041F3C007582002288
:00000001FF
